:020000040800F2
:10000000F01D00201D1B000881010008830100086D
:10001000870100088B0100088F0100080000000024
:100020000000000000000000000000009301000834
:10003000950100080000000097010008D513000892
:10004000371B0008371B0008371B0008371B000848
:10005000371B0008371B000893030008AB03000898
:10006000371B0008371B0008C3030008371B0008B4
:10007000371B0008371B0008371B0008371B000818
:10008000371B0008371B0008371B0008371B000808
:100090008D120008371B0008371B0008371B0008AB
:1000A000371B0008371B0008371B0008371B0008E8
:1000B000371B0008371B0008371B0008371B0008D8
:1000C000371B0008371B0008371B0008371B0008C8
:1000D000371B0008B70400087D0700089F0A0008C6
:1000E000371B0008371B0008371B0008371B0008A8
:1000F000371B0008371B0008371B0008371B000898
:10010000371B0008371B0008371B0008371B000887
:10011000C90C0008B50F0008371B0008371B000882
:10012000371B0008371B0008371B0008371B000867
:10013000DFF80CD003F0FEFB004800475701000831
:10014000F01D002041F664114843002100E0491CE5
:100150008142FCD370474FF4A06001F0C3FD4FF41F
:10016000E13000F03FF900F017F800F065F801F019
:1001700013F8C820FFF7E6FF01E003F09CF9FCE765
:10018000704700BFFEE700BFFEE700BFFEE700BF0D
:10019000FEE770477047704708B50121102002F054
:1001A000B1FE0121082002F0ADFE2020ADF80000D4
:1001B00010208DF8030003208DF8020069461C48CA
:1001C00002F0E4FB0420ADF8000010208DF80300DD
:1001D00003208DF802006946164802F0D7FB202163
:1001E000134802F082FC0421124802F07EFC08BD94
:1001F00010B520210E4802F069FC20B920210C48DE
:1002000002F071FC03E02021094802F06EFC10BDF1
:1002100010B50421074802F059FC20B90421054813
:1002200002F061FC03E00421024802F05EFC10BD14
:1002300000100140000C01401FB50121084602F0EA
:1002400061FE0121FC2002F05DFE0120ADF80C00F2
:1002500028208DF80F0001208DF80E0003A95F48BB
:1002600002F094FB06208DF8080001208DF80900AB
:1002700000208DF80A0001208DF80B0002A801F083
:1002800036FD0021084602F097FC01200090002076
:100290008DF8040008208DF8050001208DF8060077
:1002A000684602F093FA0220ADF80C0048208DF861
:1002B0000F0001208DF80E0003A9484802F066FBEC
:1002C00007208DF8080001208DF8090000208DF826
:1002D0000A0001208DF80B0002A801F008FD0121A1
:1002E000002002F069FC0220009000208DF804003C
:1002F0000C208DF8050001208DF80600684602F0FC
:1003000065FA1020ADF80C0048208DF80F00012090
:100310008DF80E0003A9314802F038FB0A208DF851
:10032000080001208DF8090000208DF80A00012046
:100330008DF80B0002A801F0DAFC0421002002F085
:100340003BFC1020009000208DF804000C208DF85C
:10035000050001208DF80600684602F037FA1FBD3F
:100360001F490978012903D1012000211C4A11707D
:100370001B490978022903D102200021184A117073
:1003800017490978032903D103200021144A117069
:10039000704710B5012002F07FFA28B1012002F069
:1003A0008CFA01200E49087010BD10B5022002F031
:1003B00073FA28B1022002F080FA0220084908707E
:1003C00010BD10B5102002F067FA28B1102002F01D
:1003D00074FA03200249087010BD000000080140B3
:1003E0000000002010B586B004460121880302F009
:1003F00089FD0121042002F085FD4FF40070ADF865
:10040000140003208DF8160018208DF8170005A998
:10041000FE4802F0BBFA4FF48060ADF814004820AB
:100420008DF8170005A9F94802F0B0FA25208DF8DB
:10043000100002208DF811008DF8120001208DF8B7
:10044000130004A801F053FCF14802F0BFFD009432
:100450000020ADF80400ADF80600ADF80800ADF8D6
:100460000C000C20ADF80A006946E94802F0F1FDE5
:10047000002240F22771E64802F083FE012240F29A
:100480002551E34802F07DFE012240F22441E0487C
:1004900002F077FE0121DE4802F067FE0120DD490F
:1004A000087000204880DCA003F084FAEAA003F082
:1004B00081FA06B010BD10B540F22551D44802F0C3
:1004C00045FF012814D1F1480088B0F5007F03DB17
:1004D000CF4802F0BBFE10BDCD4802F0B7FEC1B25E
:1004E000EA4802880088401CE84B1880E84881549C
:1004F00040F22441C64802F029FF01281AD1002009
:10050000C44948804FF40072E149C248001D02F01E
:10051000E7FFDE480088BF4948800020DB490880AB
:100520004FF40071DA4802F0F4FFB9480088B84887
:10053000001D00888021B64802F0F2FEB0B1D54817
:1005400001780078401CD34A1070D348405CB04911
:10055000091D088010460078D0490978884205D1E5
:10056000002240F22771AA4802F00BFE00BFB2E75A
:1005700070B505460C46A748408800280DDDA54803
:100580004288011D284602F0ABFFA2488078207007
:100590000020A0494880207870BD0020FCE770B59D
:1005A00004460D4600200AE0225CBC490B7809781D
:1005B000491CBA4E3170B849CA54411CC8B2A8424D
:1005C000F2DB93480C30008800F0800028B901224B
:1005D00040F227718E4802F0D4FD70BD70B504461C
:1005E0000025264601E0681C85B216F8011B00298B
:1005F000F9D1E9B22046FFF7D2FF70BD10B5002156
:10060000024600E0491C12F8014B002CFAD100BF51
:10061000A34B9B6C002BFBD1A24B1B78002B35D13D
:100620000123A04C23707A4B14331B8843F08003C2
:10063000774C143423809C4B5B6943F001039A4C44
:1006400063610023964C6364234699641865704B7C
:100650001B1DE36423465B6C43F010036364234675
:100660005B6C636423465B6C636423465B6C43F0A2
:100670008003636423465B6C636423465B6C636442
:1006800023465B6C636423465B6C6364844B5B6CE6
:1006900023F00103824C63642346996418655B6C04
:1006A00043F00103636410BD10B586B004467E4874
:1006B000C06940F400307C49C8610846806940F058
:1006C000040088610420ADF8140003208DF81600A2
:1006D00018208DF8170005A94C4802F057F908209A
:1006E000ADF8140048208DF8170005A9474802F01E
:1006F0004DF926208DF8100002208DF811008DF89C
:10070000120001208DF8130004A801F0F0FA009403
:100710000020ADF80400ADF80600ADF80800ADF813
:100720000C000C20ADF80A006946604802F091FC0C
:10073000002240F227715D4802F023FD012240F2C1
:1007400025515A4802F01DFD012240F2244157482C
:1007500002F017FD0121554802F007FD4FF60F701A
:100760005249088001202B4981F804020020A1F899
:1007700006024FA003F01EF906B010BD10B54B489D
:10078000008800F0200098B157480088FF2803DD5A
:100790004648001D008810BD4448001D0088C1B2B5
:1007A000514802880088401C4F4B18804F488154A4
:1007B0003E48008800F01000D8B100201549A1F88B
:1007C00006024FF480724949494802F089FE4648C2
:1007D00000881049A1F806020020434908804FF420
:1007E0008071424802F095FE304800882F48001D75
:1007F00000882E48008800F0800028B12B480C307B
:10080000008800F0800075E08DE0000000080140E5
:10081000003801406C0000200D0D0D3D3D3D3D3D7B
:100820003D3D3D3D3D3D20C4A7C5AEBFAAB7A2B0EA
:10083000E52053544D33324631303320CDE2C9E800
:10084000B3F5CABCB1A8B8E6203D3D3D3D3D3D3DB8
:100850003D3D3D3D0D000000555341525431B3F52F
:10086000CABCBBAFC5E4D6C3202020202020BDD306
:10087000CAD5D6D0B6CFA1A2BFD5CFD0D6D0B6CF0D
:100880002C20B7A2CBCDD6D0B6CF0D0014000020BF
:10089000800B0020040000208006002005000020BE
:1008A00000000240160000200010024000440040FA
:1008B0000D555341525432B3F5CABCBBAFC5E4D653
:1008C000C3202020202020BDD3CAD5D6D0B6CFA1AA
:1008D000A2BFD5CFD0D6D0B6CF2C20B7A2CBCDD605
:1008E000D0B6CF0D0000000018000020800D0020C1
:1008F00074020020B8B1FC4801780078401CFA4A24
:100900001070FA48405CFA49088010460078F949AE
:100910000978884207D1F6480830008820F0800026
:10092000F3490831088000BF35E770B505460C462D
:10093000F148B0F80602002811DDEF48B0F80622B1
:1009400000F50271284602F0CBFDEB4890F8060254
:1009500020700020E849A1F80602207870BD002030
:10096000FCE770B5024600200AE0145CE14B1D78FC
:100970001B785B1CDF4E3370DC4B5C55431CD8B2DC
:100980008842F2DBDA480830008800F0800038B98D
:10099000D7480830008840F08000D54B08331880D5
:1009A00070BD70B504460025264601E0681C85B27E
:1009B00016F8011B0029F9D1E9B22046FFF7D1FF53
:1009C00070BD10B586B00446CC48C06940F48020A4
:1009D000CA49C8610846806940F008008861081566
:1009E000ADF8140003208DF8160018208DF81700BC
:1009F00005A9C34801F0CAFF4FF40060ADF8140028
:100A000048208DF8170005A9BD4801F0BFFF272039
:100A10008DF8100002208DF811008DF812000120D1
:100A20008DF8130004A801F062F9B64802F0CEFA7E
:100A300000940020ADF80400ADF80600ADF8080001
:100A4000ADF80C000C20ADF80A006946AD4802F084
:100A500000FB002240F22771AA4802F092FB01221B
:100A600040F22551A74802F08CFB012240F22441BC
:100A7000A44802F086FB0121A24802F076FB4FF663
:100A80000F70A049088001209B4981F808030020CD
:100A9000A1F80A039CA002F08DFF06B010BD10B5AE
:100AA0009848008800F0200098B1A5480088FF28E9
:100AB00003DD9448001D008810BD9248001D008889
:100AC000C1B29F4802880088401C9D4B18809D48F9
:100AD00081548C48008800F01000D8B1002086496D
:100AE000A1F80A034FF480729649974802F0F8FC87
:100AF000934800888049A1F80A03002090490880A3
:100B00004FF480718F4802F004FD7E4800887D48D4
:100B1000001D00887B48008800F08000F0B1794813
:100B20000C30008800F08000C0B18848017800785F
:100B3000401C864A10708648405C7249091D088036
:100B40001046007883490978884207D16D480C30F7
:100B5000008820F080006B490C31088000BFABE7B3
:100B600070B505460C466448B0F80A03002810DD4D
:100B70006148B0F80A237449284602F0B1FC5E4887
:100B800090F80A03207000205B49A1F80A0320783E
:100B900070BD0020FCE770B5024600200AE0145C3E
:100BA0006C4B1D781B785B1C6A4E3370684B5C5530
:100BB000431CD8B28842F2DB52480C30008800F067
:100BC000800038B94F480C30008840F080004D4B11
:100BD0000C33188070BD70B504460025264601E030
:100BE000681C85B216F8011B0029F9D1E9B220462C
:100BF000FFF7D1FF70BD10B586B004463F48C0690D
:100C000040F400203D49C8610846806940F010006A
:100C100088610815ADF8140003208DF8160018201F
:100C20008DF81700C814ADF8140048208DF817008F
:100C300005A9494801F0AAFE34208DF810000220D1
:100C40008DF811008DF8120001208DF8130004A812
:100C500001F04DF8414802F0B9F900940020ADF8D8
:100C60000400ADF80600ADF80800ADF80C000C204B
:100C7000ADF80A006946394802F0EBF9002240F26B
:100C80002771364802F07DFA012240F2255133489F
:100C900002F077FA012240F22441304802F071FA62
:100CA00001212E4802F061FA4FF60F702B4908809F
:100CB0000120114981F80C040020A1F80E0428A09D
:100CC00002F078FE06B010BD10B52448008800F090
:100CD000200038B130480088FF285FDD1F48001D24
:100CE000008810BD65E059E0060000208007002064
:100CF00004440040070000206C0000200010024067
:100D0000000C0140004800400D555341525433B38C
:100D1000F5CABCBBAFC5E4D6C3202020202020BD2F
:100D2000D3CAD5D6D0B6CFA1A2BFD5CFD0D6D0B654
:100D3000CF2C20B7A2CBCDD6D0B6CF0D000000006F
:100D40001A000020800E00207803002008000020F8
:100D5000800800200900002000100140004C0040E5
:100D60000D554152543420B3F5CABCBBAFC5E4D6CF
:100D7000C3202020202020BDD3CAD5D6D0B6CFA1F5
:100D8000A2BFD5CFD0D6D0B6CF2C20B7A2CBCDD650
:100D9000D0B6CF0D000000001C000020DD48008808
:100DA000C1B2DD4802880088401CDB4B1880DB485C
:100DB0008154D848001F008800F01000D8B10020EE
:100DC000D749A1F80E044FF48072D449D54802F0F7
:100DD00087FBD1480088D249A1F80E040020CE49F3
:100DE00008804FF48071CD4802F093FBC948001F82
:100DF0000088C8480088C748001F008800F08000AD
:100E0000E8B1C4480830008800F08000B8B1C64896
:100E100001780078401CC44A1070C448405CBD4949
:100E2000088010460078C2490978884207D1B9483D
:100E30000830008820F08000B6490831088000BFE3
:100E400010BD70B505460C46B548B0F80E04002834
:100E500010DDB348B0F80E24B249284602F040FB3A
:100E6000AF4890F80E0420700020AD49A1F80E04A0
:100E7000207870BD0020FCE770B5024600200AE033
:100E8000145CAB4B1D781B785B1CA94E3370A74BD1
:100E90005C55431CD8B28842F2DB9E48083000887B
:100EA00000F0800038B99B480830008840F080008E
:100EB000984B0833188070BD70B50446002526464F
:100EC00001E0681C85B216F8011B0029F9D1E9B2CE
:100ED0002046FFF7D1FF70BD10B586B00446954897
:100EE000C06940F480109349C8610846806940F0A9
:100EF000300088618814ADF8140003208DF81600C6
:100F000018208DF8170005A98B4801F03FFD04203B
:100F1000ADF8140048208DF8170005A9874801F0A6
:100F200035FD35208DF8100002208DF811008DF868
:100F3000120001208DF8130004A800F0D8FE8048AC
:100F400002F044F800940020ADF80400ADF806006B
:100F5000ADF808000C20ADF80A000020ADF80C0038
:100F60006946774802F075F8002240F2277174480C
:100F700002F007F9012240F22551714802F001F90F
:100F8000012240F224416E4802F0FBF801216C4836
:100F900002F0EBF84FF60F706949088001206049B4
:100FA00081F810050020A1F8120566A002F002FDEC
:100FB00006B010BD10B56248008800F0200088B16E
:100FC0006E480088FF2802DD5D48808810BD5C48BF
:100FD0008088C1B2694802880088401C674B18802D
:100FE000674881545648008800F01000D0B10020B6
:100FF0004B49A1F812054FF480726149614802F033
:101000006FFA5E4800884649A1F8120500205B4946
:1010100008804FF480715A4802F07BFA48480088F3
:10102000474880884648008800F08000D0B1444896
:10103000808900F08000A8B1534801780078401CF6
:10104000514A10705148405C3D49888010460078F4
:101050004F490978884205D13948808920F08000BD
:101060003749888100BFB1E770B505460C462C486A
:10107000B0F81205002810DD2948B0F812254149C2
:10108000284602F02DFA264890F81205207000201C
:101090002349A1F81205207870BD0020FCE770B547
:1010A000024600200AE0145C394B1D781B785B1C5B
:1010B000374E3370354B5C55431CD8B28842F2DB57
:1010C0001F48808900F0800028B91D48808940F0C1
:1010D00080001B4B988170BD70B5044600252646E4
:1010E00001E0681C85B216F8011B0029F9D1E9B2AC
:1010F0002046FFF7D4FF70BD00BF704700BF254AF0
:10110000128802F04002002AF9D0C2B2214B1B1D06
:101110001A807047044C00401C000020800F002003
:101120006C0000207C0400200A00002080090020C0
:101130000B0000200010024000100140001401408C
:10114000005000400D554152543520B3F5CABCBB88
:10115000AFC5E4D6C3202020202020BDD3CAD5D6D9
:10116000D0B6CFA1A2BFD5CFD0D6D0B6CF2C20B786
:10117000A2CBCDD6D0B6CF0D000000001E000020BF
:1011800080100020800500200C000020800A002034
:101190000D0000200038014000B589B0012148064B
:1011A00001F0BDFE0121042001F0ACFE4FF480509F
:1011B000ADF8200018208DF8230003208DF82200C0
:1011C00008A95D4801F0E2FB4FF40060ADF8200093
:1011D00048208DF8230003208DF8220008A95648E6
:1011E00001F0D4FB01208DF81B008DF81C000020BD
:1011F0008DF8160001208DF81D008DF81E000020CE
:101200008DF81A008DF81F003020ADF81400012071
:101210008DF817008DF8180002208DF8190005A927
:10122000464800F0E6FD01208DF811000020ADF8E1
:101230000C008DF80E0001208DF8100000208DF8B4
:101240000F00ADF8040049F2A410ADF8060000202C
:10125000ADF80800ADF80A0001A800F054FE012224
:101260000221364801F04EF914208DF800000120CB
:101270008DF801008DF802008DF80300684600F03B
:1012800036FD2FA002F096FB09B000BD10B5354A1F
:1012900000212A4801F01BF801203249091F08707B
:1012A00010BD70B505460C4600212E48001F80F881
:1012B000211080F820108561C561082180F8221076
:1012C000217880F82310617880F82410A17880F8C4
:1012D0002510E17880F82610217980F827106179AF
:1012E00080F82810A17980F82910E17980F82A1077
:1012F00000F11801114800F0F5FE70BD70B505460B
:101300001848001F0078012815D117A002F052FBE1
:10131000002407E013480B30015D19A002F04AFBDE
:10132000601CC4B2082CF5DB16A002F043FB0020C1
:101330000C49091F087070BD00080140006400409E
:1013400043414E20CDA8D0C5C5E4D6C320202020DF
:10135000202020202020C5E4D6C3CDEAB3C90D0A41
:1013600000000000841100200D0A3C3C43414EBDAA
:10137000D3CAD5B5BDCAFDBEDD3A3E3E2020000031
:10138000256300000D0A000010B5FE48FE49086004
:1013900000F051FCFC4800684FF47A71B0FBF1F4A6
:1013A000601E4FF0E0214861002088610861084616
:1013B000006940F0040008610846006940F002003E
:1013C00008610846006940F001000861EFA002F0E2
:1013D000F1FA10BDF648D0E900305A1C40F1000087
:1013E000F349C1E900207047F14903C970472DE96D
:1013F000F04700BFFFF7F8FF04464FF0E0204069D8
:101400004FF0E0218969401A4FF47A7148434FF058
:10141000E0214969B0FBF1F9484602F07FF907463F
:10142000204602F07BF98146E24902F045F9804608
:10143000394602F0E9F8064602F075F90546FFF76D
:10144000D3FF60400843D5D12846BDE8F08730B5CA
:101450000246FFF7C9FFD84B03C300BFFFF7C4FF25
:10146000D54BD3E90053044608461946631B60EB8D
:1014700001009B1A70F10000F0D330BD70B5044636
:10148000FFF7B5FF0026054600BFFFF7B0FF0021BC
:10149000421B61EB0601121B71F10001F5D370BD17
:1014A00010B5C6480068C6490860FFF7A0FFC349E9
:1014B0000860C348006828B108460068C049096848
:1014C000401A10BD0020FCE710B5FFF7E9FF044605
:1014D00054B9BCA002F06EFAC1480078401CC04963
:1014E0000870FFF7DDFF10BDBD4801780078401C93
:1014F000BB4B18702246BBA002F05CFAFFF7D0FF8E
:1015000000BFF0E72DE9F041144600250026BD4A52
:10151000904205D1BC4A926942F00402BA4FBA61C6
:10152000BA4A904205D1B84A926942F00802B64FD1
:10153000BA61B74A904205D1B34A926942F01002AB
:10154000B14FBA61B34A904205D1AF4A926942F0B5
:101550002002AD4FBA61B04A904205D1AA4A9269C1
:1015600042F04002A84FBA6103F0030303B903231A
:10157000182C1FD007DC6CB1042C0DD0102C14D00B
:10158000142C1AD10EE01C2C11D0282C06D0482C7B
:1015900013D105E0002512E0042510E008250EE037
:1015A00008250CE043F0040509E01D4607E043F080
:1015B0000C0504E043F0080501E0002500BF00BF72
:1015C000002218E0012707FA02F601EA06078FB1A8
:1015D00007684FEA82084FF00F0C0CFA08FC27EA64
:1015E0000C07076007684FEA820C05FA0CFC47EA13
:1015F0000C070760521C082AE4D300221BE002F10A
:1016000008074FF0010C0CFA07F601EA06078FB144
:1016100047684FEA82084FF00F0C0CFA08FC27EAE3
:101620000C07476047684FEA820C05FA0CFC47EA52
:101630000C074760521C082AE1D3482C02D10269EA
:101640000A430261282C03D1026942EA0142026185
:10165000BDE8F08170B50B467049097829B9704929
:10166000704A116001216D4A11706F49095C21F0C7
:10167000F0026D490A5419070A0E6B490A54C4173F
:1016800000EBD4646411A40004F1E024D4F8004118
:101690000246C51700EBD5656D11A0EB4516012577
:1016A000B5402C430146C51700EBD5656D11AD0063
:1016B00005F1E025C5F8004170BD2DE9F041034674
:1016C0001446002600204F4A934200D100BF4F4AE3
:1016D000934200D101264E4A934200D102264D4A40
:1016E000934200D103264C4A934200D104264F4A2C
:1016F000934200D105264E4A934200D1062600228D
:1017000007E0012797408F4201D1104603E0571CA4
:10171000FAB2102AF5DB00BF0246C71700EB977735
:10172000BF10A0EB8707BF063D0E374A926942F013
:101730000102354FBA61C71700EB97774FEAA70C44
:101740003C4F57F82C704FF00F0C0CFA05FC27EAB1
:101750000C0702464FEAE07C00EB9C7C4FEAAC08A9
:10176000DFF8D0C04CF82870C71700EB97774FEA26
:10177000A70C304F57F82C7006FA05FC47EA0C0707
:101780005AE00000A25D4F004C00002053797354D2
:1017900069636BCAB1D6D3C5E4D6C320202020200C
:1017A0002020316D73D6D0B6CF31B4CE0D000000FD
:1017B0002000002000007A4428000020340000208F
:1017C00030000020A1BED4CBD0D0CAB1B3A42DB27A
:1017D000E2CAD4D4ADB5E3B7C5D6C3A1BF0D0000EE
:1017E00038000020A1BED4CBD0D0CAB1B3A42DBC48
:1017F000E0B2ECB5E32D25643A253975207573A167
:10180000BF0D00000008014000100240000C014024
:101810000010014000140140001801403900002070
:101820000003FA050CED00E000E400E0001C0140BC
:1018300000200140080001404FEAE07C00EB9C7C66
:101840004FEAAC08DFF8A0C24CF82870A74A12682B
:101850000A43A64F3A6004F0010232B1A34A0C32A7
:1018600012680A43A14F0C373A6004F0020232B109
:101870009E4A083212680A439C4F08373A60BDE816
:10188000F0819B48806940F0010099498861964841
:101890000838406820F0E0609349083948600846FD
:1018A000406840F000704860704710B500F0C3F920
:1018B0009048006810BD904890490860704730BF5C
:1018C000704772B6704762B6704700B58B48001D0E
:1018D000006840F004008949091D08608448C06917
:1018E00040F080508249C8618548406840F480706B
:1018F000834948600846006840F0040008600846D4
:10190000006840F002000860FFF7D9FF00BD784989
:10191000496821F07061764A51601146496800F0CB
:101920000F0241EA0261724A51607047014600BFEE
:101930007448C06800F0010018B1081EA1F101014F
:10194000F6D109B9012070470020FCE730B5034605
:101950006D480488B3F1006F01D2012030BD4FF013
:10196000006000EB8420984201D20220F6E703E0F9
:1019700018780870491C5B1C101EA2F10105AAB260
:10198000F6D100BFEAE72DE9F84F804689461646B2
:101990005D48B0F800A0A8F1006B4FEADB25CBF35F
:1019A0000A0000900098C0F50067B8F1006F02D2FD
:1019B0000120BDE8F88F4FF0006000EB8A20404521
:1019C00001D20120F5E751484E494860504848602F
:1019D000BE4200DC37467DE04E48FFF7A7FF08B166
:1019E0000220E6E74FF0006101EBC5200A144A49E6
:1019F000FFF7ACFF4748FFF799FF08B10220D8E78F
:101A00004048006940F002003E4908614FF0006024
:101A100000EBC52048610846006940F040000861BD
:101A20003C48FFF783FF08B10220C2E73548006950
:101A300041F6FD71084033490861002007E019F8BC
:101A4000002000990144344B5A54411C88B2B842DA
:101A5000F5DB00242AE02F48FFF768FF08B10220D9
:101A6000A7E72848006940F00100264908612A4894
:101A700010F81400012101EB4401274A515C40EAAF
:101A800001204FF0006101EBC52121F8140021482D
:101A9000FFF74CFF08B102208BE71A48006941F6B6
:101AA000FE71084017490861601C84B2B4F5806F6C
:101AB000D1DBB74200D10EE0B9446D1C002000908C
:101AC000F01B86B2B6F5006F02DD4FF4006000E057
:101AD0003046074680E700BF0A48006940F08000B2
:101AE00008490861002064E7080001400004014043
:101AF000001002404C0000200400FA050CED00E04C
:101B00000070004000200240E0F7FF1F23016745FE
:101B1000AB89EFCD88888800EE1100200648804709
:101B200006480047FEE7FEE7FEE7FEE7FEE7FEE7C2
:101B3000FEE7FEE7FEE7FEE7411B00083101000873
:101B40000CB56048006840F001005E490860084636
:101B500040685D4908405B4948600846406820F499
:101B6000FE0048604FF41F00886000200190009044
:101B70000846006840F48030086000BF51480068A3
:101B800000F4003000900198401C0190009818B9B2
:101B90000198B0F5A06FF1D14A48006800F4003018
:101BA000002843D04948006840F0100047490860C9
:101BB0000846006820F0030008600846006840F00E
:101BC000020008603F4840683E4948600846406857
:101BD00048600846406840F48060486008464068B5
:101BE00020F47C1048600846406840F4E8104860E3
:101BF0000846006840F08070086000BF3148006807
:101C000000F000700028F9D02E48406820F0030052
:101C10002C4948600846406840F00200486000BF18
:101C20002848406800F00C000828F9D14FF0006007
:101C3000274908600CBD10B5002100200022214B6F
:101C40005B6803F00C0121B1042906D0082928D1D2
:101C500007E0204B204C236027E01E4B1E4C2360E6
:101C600023E0184B5B6803F47010164B5B6803F4B9
:101C70008032022303EB904022B9184B4343164CA9
:101C800023600DE00F4B5B6803F4003323B1134B6B
:101C90004343114C236003E00E4B43430E4C23603F
:101CA00003E00C4B0C4C236000BF00BF054B5B688E
:101CB000C3F303130A4CE15C074B1B68CB40064C93
:101CC000236010BD001002400000FFF80020024019
:101CD00008ED00E000127A004C00002000093D00F1
:101CE0003C00002031490143314A1160704770B512
:101CF000002100230F22C47804B32D4C246804F47F
:101D0000E064C4F5E064210AC1F10403CA404478E8
:101D100004FA03F18478144021430901254C067824
:101D2000A155047804F01F050124AC4005786D111D
:101D3000AD0005F1E025C5F8004109E0047804F0A4
:101D40001F050124AC401C4D0678761145F826404D
:101D500070BD1A4A0A400243154B1B1F1A60704798
:101D600039B1134A121D12680243114B1B1D1A6030
:101D700006E00F4A121D126882430D4B1B1D1A60AC
:101D80007047042808D14FF0E021096941F00401AF
:101D90004FF0E022116107E04FF0E021096921F0E6
:101DA00004014FF0E0221161704700000000FA05C5
:101DB0000CED00E000E400E080E100E080FFFF1FA8
:101DC00010B50446FE48844209D10121480601F0BD
:101DD000C0F800214FF0007001F0BBF808E00121CD
:101DE000880601F0B6F800214FF0806001F0B1F8EC
:101DF00010BD30B5024600200023146824F0020410
:101E00001460146844F00104146000E05B1C546822
:101E100004F001041CB94FF6FF74A342F6D15468D4
:101E200004F001040CB900206CE08C79012C04D181
:101E3000146844F08004146003E0146824F0800403
:101E40001460CC79012C04D1146844F0400414606F
:101E500003E0146824F0400414600C7A012C04D1CF
:101E6000146844F02004146003E0146824F0200493
:101E700014604C7A012C04D1146844F010041460EE
:101E800003E0146824F0100414608C7A012C04D14F
:101E9000146844F00804146003E0146824F0080493
:101EA0001460CC7A012C04D1146844F0040414604A
:101EB00003E0146824F0040414608C78A407CD783F
:101EC00044EA05640D7944EA05444D7944EA055431
:101ED0000D886D1E2C43D461146824F00104146035
:101EE000002300E05B1C546804F001041CB14FF6B1
:101EF000FF74A342F6D1546804F001040CB1002031
:101F000000E0012030BD10B50021837A012202FAE1
:101F100003F1AC4A126842F00102AA4B1A60A94AC6
:101F20001C3212688A43A74B1C331A60027BCAB961
:101F3000A44A0C3212688A43A24B0C331A604288BE
:101F4000C38842EA03439F4A4032847A42F83430DD
:101F50000288838842EA03439A4A4032847A02EB39
:101F6000C4025360027B012A19D1964A0C321268CE
:101F70000A43944B0C331A604288038842EA0343B5
:101F8000904A4032847A42F83430C288838842EAE8
:101F900003438C4A4032847A02EBC4025360C27A13
:101FA0003AB9884A121D12688A43864B1B1D1A6073
:101FB00006E0844A121D12680A43824B1B1D1A60F8
:101FC000028932B97F4A143212688A437D4B143336
:101FD0001A600289012A06D17A4A143212680A4329
:101FE000784B14331A60427B012A06D1754A1C32A1
:101FF00012680A43734B1C331A60724A126822F04B
:102000000102704B1A6010BD00218171C171017213
:1020100041728172C1728170C1700321017102210C
:1020200041710121018070476649096841F0010151
:10203000644A11601146096843F60E729143614A81
:1020400011601146096841EA0021116011460968D2
:1020500021F001011160704721B1026842F4803221
:10206000026003E0026822F4803202607047E1B14E
:10207000026842F0800202604FF4C272125842F4C9
:1020800080734FF4C27213504FF4CA72125842F464
:1020900080734FF4CA7213504FF4D272125842F444
:1020A00080734FF4D27213501BE0026822F080025A
:1020B00002604FF4C272125822F480734FF4C2725D
:1020C00013504FF4CA72125822F480734FF4CA723C
:1020D00013504FF4D272125822F480734FF4D2721C
:1020E0001350704710B502460020936803F08063D8
:1020F000B3F1806F00D110E0936803F00063B3F197
:10210000006F01D1012008E0936803F08053B3F120
:10211000805F01D1022000E00420042879D002F57C
:10212000C07303EB00131B6803F0010402F5C073D6
:1021300003EB00131C600B7A7BB94B7A0C8843EAE3
:10214000445302F5C07404EB00142468234302F5E1
:10215000C07404EB0014236010E00B7A4C6843EA6F
:10216000C4034C7A234302F5C07404EB00142468C2
:10217000234302F5C07404EB001423608B7A03F050
:102180000F038B7202F5C07303EB00135B6823F03F
:102190000F0402F5C07303EB00135C6002F5C0731B
:1021A00003EB00135B688C7A234302F5C07404EBE5
:1021B000001463608B7B1C064B7B44EA034403E002
:1021C00000640040006600400B7B44EA0323CC7AA5
:1021D000234302F5C07404EB0014A3608B7C1C063F
:1021E0004B7C44EA03440B7C44EA0323CC7B23432B
:1021F00002F5C07404EB0014E36002F5C07303EB56
:1022000000131B6843F0010402F5C07303EB0013D5
:102210001C6010BD10B50246002321B1012907D072
:1022200002290FD109E09068F94C00EA04030BE0A1
:102230009068F84C00EA040306E09068F64C00EA67
:10224000040301E0002300BF00BFF44C181BA342AD
:1022500016D007DC83B16FF08060184470B102289B
:1022600018D111E0B0F5007F10D0ED4C204448B1FA
:10227000B0F5003F0ED10BE002230DE000230BE090
:10228000002309E0002307E0012305E0012303E028
:10229000012301E0002300BF00BFD8B210BD21B16F
:1022A000012907D002290FD109E0826842F080029B
:1022B00082600AE0826842F40042826005E082683F
:1022C00042F40002826000E000BF00BF704710B51A
:1022D00000F5D87303EB01131B6803F004031372BA
:1022E000137A53B900F5D87303EB01131B6840F25E
:1022F000FF7404EA5353136009E000F5D87303EB4D
:1023000001131B686FF0604404EAD303536000F5C7
:10231000D87303EB01131B6803F00203537200F53B
:10232000D87303EB01135B6803F00F03937200F59E
:10233000D87303EB01135B681B0AD37400F5D873E1
:1023400003EB01139B68D37200F5D87303EB011301
:102350009B681C0A147300F5D87303EB01139B6888
:102360001C0C547300F5D87303EB01139B681B0E10
:10237000937300F5D87303EB0113DB68D37300F597
:10238000D87303EB0113DB681C0A147400F5D873CF
:1023900003EB0113DB681C0C547400F5D87303EBDA
:1023A0000113DB681B0E937421B9C36843F020034B
:1023B000C36003E0036943F02003036110BD21B94A
:1023C000C26842F02002C26003E0026942F02002CB
:1023D000026170470246002019B9D36803F0030078
:1023E00006E0012903D1136903F0030000E0002097
:1023F000704710B502460B4600204FF6FF71BBB97F
:10240000146824F0020444F00104146000E0491E42
:10241000546804F00304012C01D00029F7D154685A
:1024200004F00304012C01D0002032E0012030E050
:10243000012B13D1146824F00304146000E0491E3A
:10244000546804F003040CB10029F8D1546804F076
:1024500003040CB100201CE001201AE0022B17D16C
:10246000146824F0010444F00204146000E0491EE2
:10247000546804F00304022C01D00029F7D15468F9
:1024800004F00304022C01D0002002E0012000E04F
:10249000002010BD014600200A6822F0010242F02F
:1024A00002020A604A6802F00302022A00D10120F7
:1024B000704701464FF6FF7200200B6823F00203BD
:1024C0000B6000E0521E4B6803F00203022B01D1A7
:1024D000002AF7D14B6803F00203022B00D0012041
:1024E0007047014600208A6902F07000704701467B
:1024F00000208A69100E7047014600208A69C2F3E5
:10250000074070471AB143690B43436102E04369D6
:102510008B434361704710B50246002001F47003FD
:1025200043B19369C1F3130423400BB101202DE0A3
:1025300000202BE001F0807343B15368C1F3130412
:1025400023400BB1012021E000201FE001F00063D7
:1025500043B19368C1F3130423400BB1012015E08C
:10256000002013E001F0007343B1D368C1F31304FA
:1025700023400BB1012009E0002007E01369C1F3FB
:10258000130423400BB1012000E0002010BD002205
:10259000244B994202D10023836111E0C1F313025D
:1025A00001F000730BB1C2600AE001F080630BB16F
:1025B000026105E001F000630BB1826000E042605F
:1025C00070470246002002EA01030BB1012000E03F
:1025D0000020704770B504460D460026606928400B
:1025E000002872D0B5F5807F69D01DDC082D42D05F
:1025F00006DC012D2DD0022D31D0042D7FD134E009
:10260000102D3ED0202D42D0402D78D145E0000045
:10261000030000040003000800000310000100088C
:102620000001FFF77000F030B5F5004F61D009DC14
:10263000B5F5007F4AD0B5F5806F4DD0B5F5006F88
:102640005DD150E0B5F5803F2DD0B5F5003F56D1B6
:102650002FE0A0685549FFF7B4FF064651E0E06857
:102660000321FFF7AEFF06464BE0E0680821FFF7C5
:10267000A8FF064645E0E0681021FFF7A2FF0646E6
:102680003FE020690321FFF79CFF064639E02069FF
:102690000821FFF796FF064633E020691021FFF777
:1026A00090FF06462DE060680821FFF78AFF064686
:1026B00027E060681021FFF784FF064621E0A0694B
:1026C0000121FFF77EFF06461BE01BE0A069022107
:1026D000FFF777FF064614E0A0690421FFF771FFBA
:1026E00006460EE00BE0A0697021FFF76AFF064680
:1026F00007E060680421FFF764FF064601E000265A
:1027000000BF00E00026304670BDB1F5007F3AD032
:102710000FDC202928D006DC01291CD004291DD07B
:10272000082940D11DE0402921D0B1F5807F3AD160
:1027300026E0B1F5004F31D006DCB1F5806F25D031
:10274000B1F5006F2FD124E0B1F5803F12D0B1F583
:10275000003F28D111E0154A826025E00822C260BE
:1027600022E01022C2601FE0082202611CE0102259
:10277000026119E00822426016E01022426013E074
:102780000422426010E0042242600DE00422426014
:102790000AE0002282610422426005E00022826198
:1027A0000422426000E000BF00BF70470101010049
:1027B000002044490860091D0860091D0860091DC2
:1027C000086041483F4914310860704700213D4985
:1027D0008279002A3AD00A46126803689A430B4667
:1027E0001A600A1D126803689A430B1D1A60027969
:1027F00011440A6803681A430A60324A08321268B0
:1028000003689A432F4B08331A601A1D1268036835
:102810009A432C4B0C331A604279102A0ED11A1F9E
:10282000126803681A43274B08331A601A1D12688E
:1028300003681A43234B0C331A600DE02149427997
:1028400011440A6803681A430A6005E002791144DA
:102850000A6803689A430A607047002101600171A9
:102860000C214171002181717047164910310968AE
:102870000143144A10321160704701460020114A8A
:10288000143212680A400AB1012000E000207047AB
:102890000C49143108607047014600200022094BA2
:1028A0001B6803EA0102074B14331B680B4013B18A
:1028B0000AB1012000E0002070470249143108608D
:1028C0007047000000040140FFFF0F0010B50446F0
:1028D000CC48844208D10121042000F02DFB0021C6
:1028E000042000F029FB46E0C748844208D10121BA
:1028F000082000F021FB0021082000F01DFB3AE039
:10290000C248844208D10121102000F015FB0021AB
:10291000102000F011FB2EE0BD48844208D10121B7
:10292000202000F009FB0021202000F005FB22E020
:10293000B848844208D10121402000F0FDFA00216E
:10294000402000F0F9FA16E0B348844208D1012192
:10295000802000F0F1FA0021802000F0EDFA0AE07A
:10296000AE48844207D10121801500F0E5FA00212C
:10297000A01500F0E1FA10BD10B50121084600F0E5
:10298000DBFA0021012000F0D7FA10BD2DE9F0415B
:10299000024600250026002000230024002791F88D
:1029A00003C00CF00F0591F803C00CF0100CBCF143
:1029B000000F03D091F802C04CEA050591F800C061
:1029C000BCF1000F31D0146800202BE04FF0010C57
:1029D0000CFA00F3B1F800C00CEA03069E4220D1C5
:1029E00083004FF00F0C0CFA03F7BC4305FA03FC0D
:1029F0004CEA040491F803C0BCF1280F06D14FF053
:102A0000010C0CFA00FCC2F814C00AE091F803C0F3
:102A1000BCF1480F05D14FF0010C0CFA00FCC2F8D4
:102A200010C0401C0828D1D31460B1F800C0BCF11C
:102A3000FF0F34DD546800202EE000F1080C4FF049
:102A4000010808FA0CF3B1F800C00CEA03069E4234
:102A500021D183004FF00F0C0CFA03F7BC4305FAA9
:102A600003FC4CEA040491F803C0BCF1280F05D123
:102A700000F1080C08FA0CF8C2F8148091F803C0B1
:102A8000BCF1480F07D100F1080C4FF0010808FA1B
:102A90000CF8C2F81080401C0828CED35460BDE862
:102AA000F0814FF6FF710180022181700421C17015
:102AB00070470246002093680B400BB1012000E0F4
:102AC000002070470146886880B2704702460020A7
:102AD000D3680B400BB1012000E000207047014695
:102AE000C86880B2704701617047416170470AB1A0
:102AF000016100E041617047C16070474FF480326E
:102B00000A438261816182618269826970470246FB
:102B10000020434B18684FF68073184040EA0210BB
:102B200008433F4B186070473E49C8617047F0B595
:102B30000A46002300240021002500F00046B6F1DB
:102B4000004F02D1364EF16901E0354E7168C0F395
:102B5000034583B200F44016B6F5401F08D121F0BA
:102B600070612F4E766826F070662D4F7E6012E001
:102B700000F48016B6F5801F06D1032606FA05F488
:102B8000A14341F0706106E0460D360103FA06F6F6
:102B9000B14341F0706122B1460D360103FA06F6E9
:102BA000314300F00046B6F1004F02D11C4EF161F6
:102BB00001E01B4E7160F0BD30B500228B071C0F89
:102BC0000F2303FA04F2164B08338C1053F8243009
:102BD0009343134C08348D1044F8253023468C1051
:102BE00053F824308C07240F00FA04F423430C4CD0
:102BF00008348D1044F8253030BD0A49DC310860B6
:102C00007047000000080140000C01400010014026
:102C10000014014000180140001C01400020014048
:102C20000000014000002042DF48006840F0010041
:102C3000DD49086008464068DC490840DA494860D8
:102C400008460068DA490840D74908600846006825
:102C500020F4802008600846406820F4FE004860A8
:102C60004FF41F0088607047CF49096821F4803114
:102C7000CD4A11601146096821F480211160B0F538
:102C8000803F03D0B0F5802F0ED106E0C649096819
:102C900041F48031C44A116007E0C349096841F436
:102CA000A021C14A116000E000BF00BF704710B50D
:102CB00001460022002300204A11012A02D1BA4C09
:102CC000236806E0022A02D1B74C236A01E0B64C21
:102CD000636A01F01F02012494401C400CB10120E2
:102CE00000E0002010BD38B5002000900024002531
:102CF00000BF3120FFF7DBFF05460098401C009025
:102D00000098B0F5A06F01D0002DF2D03120FFF770
:102D1000CEFF08B1012400E00024204638BD014662
:102D20000020A14A106820F0F80040EAC1001060BD
:102D30007047A04908607047024600209A4B5868C7
:102D400020F47C1042EA01031843974B5860704707
:102D500098490866704701460020934A506820F061
:102D600003000843506070478F48406800F00C0033
:102D70007047014600208C4A506820F0F00008435C
:102D80005060704701460020874A506820F4E06098
:102D900008435060704701460020834A506820F481
:102DA000605040EAC1005060704729B17E4A527AB3
:102DB00002437D4B5A7204E07B4A527A82437A4B3B
:102DC0005A7270477B49D83108607047014600202D
:102DD000754A506820F44040084350607047002115
:102DE000714A20321170704A82F82010012802D0F6
:102DF00004280AD104E001216B4A2032117005E059
:102E00000521694A2032117000E000BF00BF704701
:102E10006949086070476449096A0143624A11625E
:102E20007047654944390860704730B50021002279
:102E3000002400235C4D6D6805F00C0121B10429CC
:102E400005D0082923D105E05C4D056022E05B4DEB
:102E500005601FE0544D6D6805F47012524D6D68A9
:102E600005F48034022505EB92421CB9544D5543BC
:102E700005600BE04C4D6D6805F400351DB1504DFB
:102E80005543056002E04D4D5543056002E04B4D52
:102E9000056000BF00BF444D6D6805F0F0010909F1
:102EA000484D6B5C0568DD4045603F4D6D6805F43D
:102EB000E061090A434D6B5C4568DD4085603A4D31
:102EC0006D6805F46051C90A3E4D6B5C4568DD4094
:102ED000C560354D6D6805F44041890B3A4D6B5C1A
:102EE000C568B5FBF3F5056130BD29B12E4A5269BD
:102EF00002432D4B5A6104E02B4A526982432A4B0C
:102F00005A61704729B1284A92690243264B9A6157
:102F100004E0254A92698243234B9A61704729B1A4
:102F2000214AD2690243204BDA6104E01E4AD26989
:102F300082431D4BDA61704729B11B4AD2680243B4
:102F4000194BDA6004E0184AD2688243164BDA6003
:102F5000704729B1144A12690243134B1A6104E005
:102F6000114A12698243104B1A6170471249403965
:102F7000086070470F49C86470470B49C8717047B3
:102F80000948406A40F0807007494862704701462E
:102F90000020054A92680A400AB1012000E00020A2
:102FA0007047014988727047001002400000FFF826
:102FB000FFFFF6FE000042428004424200127A0007
:102FC00000093D00500000206000002010B50446BC
:102FD000FB48844209D101218803FFF7ADFF00219E
:102FE0004FF48040FFF7A8FF32E0F648844209D151
:102FF00001214804FFF7ADFF00214FF40030FFF737
:10300000A8FF25E0F048844209D101218804FFF798
:10301000A0FF00214FF48020FFF79BFF18E0EB4852
:10302000844209D10121C804FFF793FF00214FF426
:103030000020FFF78EFF0BE0E548844208D1012114
:103040000805FFF786FF00214FF48010FFF781FF8E
:1030500010BD2DE9F04786B005460E460024A24675
:1030600000BFA1460027B08900B100BF2F462C8ABF
:103070004CF6FF700440F08804432C82AC894EF675
:10308000F3100440B0883189084371890843044330
:10309000AC81AC8A4FF6FF400440B0890443AC8257
:1030A00001A8FFF7C2FEC648874202D1DDF810A092
:1030B00001E0DDF80CA0A88900F4004040B10AEB63
:1030C000CA0000EB0A1031684900B0FBF1F807E0D4
:1030D0000AEBCA0000EB0A1031688900B0FBF1F876
:1030E0006420B8FBF0F004012009642101FB108981
:1030F000A88900F4004040B1322000EBC900B0FBC9
:10310000F1F000F00700044308E0322000EB091062
:103110006421B0FBF1F000F00F0004432C8106B0F5
:10312000BDE8F0874FF41651016000218180C18015
:1031300001810C21418100218181704710B5024637
:103140000020108A4FF2FF0318400B884C8823435D
:103150008C882343CC8823431843108210BD002160
:10316000018041808180C180704721B1828942F411
:103170000052828104E082894DF6FF731A408281F9
:103180007047F0B50346002400260025002040F6D5
:103190006A17B94200D100BF1846C1F3421401F0CA
:1031A0001F06012707FA06F5012C01D10C3004E0B7
:1031B000022C01D1103000E014301AB107682F43FF
:1031C000076002E00768AF430760F0BD1AB1838A69
:1031D0000B43838202E0838A8B4383827047028A97
:1031E0004FF6F0731A400282028A0A430282704745
:1031F00082894FF2FF731A40828182890A43828159
:10320000704721B1828942F00202828104E0828902
:103210004FF6FD731A4082817047028A4FF6DF73C2
:103220001A400282028A0A430282704721B1028A4E
:1032300042F48042028204E0028A4BF6FF731A4095
:1032400002827047C1F30802828070470146888875
:10325000C0F308007047818941F001018181704706
:10326000028BD2B20283028B42EA012202837047B0
:10327000028B02F47F420283028B0A43028370476F
:1032800021B1828A42F02002828204E0828A4FF6D3
:10329000DF731A408282704721B1828A42F01002A5
:1032A000828204E0828A4FF6EF731A40828270476E
:1032B00021B1828A42F00802828204E0828A4FF6BB
:1032C000F7731A408282704721B1828942F400422A
:1032D000828103E08289C2F30E028281704721B1AC
:1032E000828A42F40062828204E0828A4FF2FF7393
:1032F0001A4082827047828A4FF6FB731A4082829C
:10330000828A0A438282704721B1828A42F0020295
:10331000828204E0828A4FF6FD731A4082827047EF
:1033200002460020B1F5007F00D100BF13880B409A
:103330000BB1012000E00020704701F40072B2F5EB
:10334000007F00D100BFCA430280704770B50246BB
:10335000002400230025002040F66A16B14200D167
:1033600000BFC1F3421501F01F03012606FA03F363
:10337000012D02D19689334006E0022D02D1168A32
:10338000334001E0968A33400C12012606FA04F419
:103390001688344013B10CB1012000E0002070BD4C
:1033A00010B50022002340F66A14A14200D100BFEC
:1033B0000A1201249440A3B2DC43048010BD000033
:1033C000003801400044004000480040004C0040EC
:1033D000005000402DE9FC41054600E06D1C2878B6
:1033E0002028FBD028780D28F8D03AA1284600F0F4
:1033F000C1F804460CB9BDE8FC81204600F0F7F89E
:10340000C6B216B1012E00D0F5E732A1002000F0BF
:10341000B1F8044604B9EEE710220021204600F07E
:10342000ADF80746B7F5006F00D3E4E74FF00008AA
:1034300010E028A1002000F09DF8044604B9DAE766
:1034400010220021204600F099F8C0B20DF80800C3
:1034500008F10108B8F1080FEBDB012E06D169462F
:103460003846FDF71EFF0120FCF76CFE00BFC2E7E7
:10347000F8B505460E466A4617A1284600F05CF8E6
:10348000044615E0204600F04FF8142806D26A469C
:1034900011A1002000F050F8044609E02046FFF793
:1034A00099FF6A460CA1002000F046F8044600BFD0
:1034B000002CE7D1F8BD10B508484088002807DD8A
:1034C00006484188001DFFF7D3FF002003494880CC
:1034D00010BD0000200000000D0A00006C0000205C
:1034E00040EA01039B0703D009E008C9121F08C086
:1034F000042AFAD203E011F8013B00F8013B521E06
:10350000F9D27047D2B201E000F8012B491EFBD27C
:1035100070470022F6E710B513460A4604461946DE
:10352000FFF7F0FF204610BD421C10F8011B0029D8
:10353000FBD1801A7047000070B500B910680025F3
:1035400012E00B4602E0A64203D05B1C1C78002C64
:10355000F9D1E3B22B4305D02CB125B1002100F8FD
:10356000011B04E00546401C0678002EE9D11060DE
:10357000284670BD004ADFE7640000202DE9F05FB7
:1035800093460F4680460446002600F023FAD0F802
:103590000090824614F8015B2DB100F009F9006833
:1035A000405DC007F6D12B2D02D02D2D1AD0641E00
:1035B0000021CAF800105A463946204600F0FCF8AF
:1035C000014627B13868A04201D1C7F80080DAF877
:1035D0000000022809D0CAF80090700505D54842BD
:1035E000BDE8F09F46F48066E2E70846F8E770B56C
:1035F000064600F0EFF9046805460A22002130462D
:1036000000F029F92C6070BDF0B480EA0102D40FFB
:103610004200B2EB410F02D20246084611464A0070
:1036200042D0C30DDDB2C1F3C752AD1A202D35DA39
:10363000C1F3160141F4000204B15242C5F1200663
:1036400002FA06F12A411044B3EBD05F23D0C4B193
:10365000012DA0EBC35009DCF0BC4FF0004202EAA0
:10366000C352DBB200F5000000F036B9400000F1B3
:10367000807000EBC350A0F1807040EAD170490027
:1036800009E0490841EAC071A0EBC35000F5000011
:10369000400800EBC350F0BC00F015B961420122B4
:1036A00002EB4101001BF6E7F0BC704781F00041DE
:1036B000AAE780F00040A7E780EA010210B502F017
:1036C0000043400022D04A001FD0010E01EB1261DE
:1036D000C0F35600C2F3560240F4000042F4000268
:1036E000A0FB022000047F39140400D0401C50EAE3
:1036F000124001D44000491EC2B20C0604EBD010A7
:10370000401C4008802A02D003E0002010BD20F0B9
:103710000100002900DA0020184310BD9623002282
:10372000114600F0D9B820F00040C10DC0F31600DA
:1037300040F400007F2901DA00207047962903DC5D
:10374000C1F19601C84070479639884070472DE90D
:10375000F05F0546002092469B4688460646814615
:1037600040241BE0284641464746224600F003F924
:1037700053465A46C01A914110D311461846224664
:1037800000F0EAF82D1A67EB01084F4622460120A7
:10379000002100F0E1F817EB00094E41201EA4F1D2
:1037A0000104DFDC484631462A464346BDE8F09F27
:1037B00000487047E03E00082DE9F05F824600783F
:1037C000002715468B460AF10104B946302801D07E
:1037D0009DB113E014F8010B0127782803D0582875
:1037E00001D045B10AE00DB1102D07D100271025F9
:1037F00014F8010B02E0082500E00A250026B04677
:103800000EE005FB080005FB06F1012701EB104661
:103810001FFA80F8B6F5803F00D3B94614F8010BC3
:10382000294600F0B8F80028EBDABBF1000F05D00C
:103830000FB1641E00E05446CBF80040B9F1000F10
:1038400006D000F0C7F802210160C81EBDE8F09F55
:1038500048EA0640FAE72DE9F04791460F468046D0
:103860000446002614F8015B2DB1FFF7A1FF0068A4
:10387000405DC007F6D12B2D02D02D2D18D0641E2F
:103880004A4639462046FFF797FF27B13968A142DB
:1038900001D1C7F8008071054FF002040BD54042FA
:1038A000002803DD00F096F80460A007BDE8F0876B
:1038B00046F48066E4E70028F8DA00F08BF804604C
:1038C0006FF00040F2E70029A8BF7047401C490094
:1038D00008BF20F00100704710B4B0FA80FC00FA75
:1038E0000CF050EA010404BF10BC704749B1CCF1A0
:1038F000200421FA04F411FA0CF118BF012121432C
:103900000843A3EB0C01CB1D4FEA00614FEA1020E6
:1039100042BF002010BC704700EBC3501044002988
:10392000A4BF10BC7047401C490008BF20F0010034
:1039300010BC7047064C074D06E0E06840F00103FC
:1039400094E8070098471034AC42F6D3FCF7F4FB38
:10395000E43E0008043F0008202A04DB203A00FA75
:1039600002F1002070479140C2F1200320FA03F3D6
:10397000194390407047202A04DB203A21FA02F0D4
:103980000021704721FA02F3D040C2F12002914099
:103990000843194670473A2800D2303820F02002F8
:1039A000412A01D3A2F13700884201D34FF0FF3002
:1039B000704700000FB4054B10B503A9044A0298E4
:1039C00000F01CF810BC5DF814FB0000FD100008AE
:1039D00010000020004870476800002002E008C87E
:1039E000121F08C1002AFAD170477047002001E079
:1039F00001C1121F002AFBD1704700002DE9FF4FC3
:103A00008DB00F460546002606E025280BD0DDE9DF
:103A10000F1290476D1C761C28780028F5D111B044
:103A20003046BDE8F08F0024A246A1460122EC49B1
:103A300000E0044315F8013F203B02FA03F008427E
:103A4000F7D128782A2810D06FF02F022878A0F11B
:103A50003001092914D80AEB8A0102EB410144F034
:103A6000020400EB010A6D1CF0E701CF5FEA000AD7
:103A700003D544F40054CAF1000A44F002046D1C5A
:103A800028782E2817D115F8010F44F004042A28AD
:103A90000ED06FF02F022878A0F1300109290AD842
:103AA00009EB890102EB410100EB01096D1CF2E712
:103AB00057F8049B6D1C28786C280FD006DC4C2826
:103AC00017D068280DD06A2814D104E0742810D0CB
:103AD0007A280FD10DE044F400140AE044F4801475
:103AE00001E044F440146978814202D104F5801465
:103AF0006D1C6D1C2A786E2A1FD00CDC632A31D015
:103B000004DC002A8BD0582A11D1A3E0642A68D0A3
:103B1000692A0CD165E0732A2ED004DC6F2A73D099
:103B2000702A04D19BE0752A6FD0782A6ED0104697
:103B3000DDE90F129047761C50E1C4F302500228D1
:103B400006D0032809D0042801CF09D0066045E13A
:103B500001CFF117C0E9006140E101CF06803DE1EE
:103B600006703BE117F8040B8DF8000000208DF87B
:103B70000100EB46012003E057F804BB4FF0FF3093
:103B800061074FF0000102D40DE008F10101884601
:103B900049450FDA8045F8DB1BF808100029F4D1FD
:103BA00008E008F1010188468142FADB1BF80810A1
:103BB0000029F6D1DDE90F23AAEB08008146214652
:103BC00000F036F9304400EB080604E0DDE90F129E
:103BD0001BF8010B9047B8F10108F7D2214648467F
:103BE000F7E00A21C4F302534FF0000B0891022BB7
:103BF00004D001CFC117032B09D00AE0FF1D27F025
:103C00000707F7E8020108E032E01FE020E000B219
:103C1000C117042B01D140B2C117031E71F100037B
:103C200007DA4FF0000CD0EB0C006CEB01012D23F8
:103C300002E0230504D52B238DF82430012303E073
:103C4000E30701D02023F7E7984658E00A2110E067
:103C500010210EE010204FF0000B08900CE0102116
:103C60004FF0000B44F004044FF00809089103E002
:103C700008214FF0000B0891C4F30253022B04D02B
:103C800001CF0021032B06D006E0FF1D27F0070718
:103C9000F7E8020103E080B2042B00D1C0B24FF07C
:103CA000000823072BD5702A07D0DDF820C08CF040
:103CB000100C5CEA0B0C05D00EE040238DF824308C
:103CC000012308E050EA010306D030238DF82430A8
:103CD0008DF8252002239846DDF820C08CF0080CD2
:103CE0005CEA0B0C0BD150EA010301D1630706D546
:103CF00030238DF824304FF00108A9F10109582A2A
:103D000004D038A20B9208AA0A920BE03AA2F9E773
:103D10005B46089AFFF71BFD0B9B9B5C0A9A521EA1
:103D20000A92137050EA0102F2D10A98ADEB00003A
:103D300000F1200B600702D524F4803401E04FF03D
:103D40000109D94502DDA9EB0B0000E0002000EBE2
:103D50000B0141440890AAEB010AE00306D4DDE917
:103D60000F232146504600F063F806444FF0000947
:103D700008E009A911F80900DDE90F12904709F1DF
:103D80000109761CC145F4DBE0030CD5DDE90F2306
:103D90002146504600F04CF8064404E0DDE90F12DD
:103DA00030209047761C0899481E08900029F5DCC1
:103DB00008E00A980A990078491C0A91DDE90F1277
:103DC0009047761CBBF10001ABF1010BF1DC214601
:103DD0005046DDE90F2300F019F806446D1C1BE680
:103DE00009280100303132333435363738396162D1
:103DF0006364656600000000303132333435363795
:103E00003839414243444546000000002DE9F04165
:103E1000044600251E461746880404D405E03946AA
:103E20002020B0476D1C641EF9D52846BDE8F081FE
:103E30002DE9F041044600251E469046C80301D5F1
:103E4000302700E02027880404D505E041463846A5
:103E5000B0476D1C641EF9D52846BDE8F0810040CE
:103E6000404040404040404041414141414040404D
:103E7000404040404040404040404040404040057D
:103E800002020202020202020202020202020220F4
:103E900020202020202020202002020202020202F4
:103EA0009090909090901010101010101010101012
:103EB0001010101010101010101002020202020256
:103EC0008888888888880808080808080808080872
:103ED000080808080808080808080202020240004A
:103EE0005F3E0008043F0008000000206C00000056
:103EF000DC390008703F00086C000020841D0000C1
:103F0000EC39000800000000000000000000000084
:103F100000000000000000000000000000000000A1
:103F20000000000000000000000000000000000091
:103F30000000000000000000000000000000000081
:103F40000000000000000000010203040607080949
:103F5000A25D4F00000000000102030401020304FF
:103F6000060708090204060800000000000000001F
:0400000508000131BD
:00000001FF
